{
  "_format": "hh-sol-artifact-1",
  "contractName": "MachineRegistry",
  "sourceName": "contracts/Vehical_Monitoring.sol",
  "abi": [
    {
      "anonymous": false,
      "inputs": [
        {
          "indexed": false,
          "internalType": "string",
          "name": "machineId",
          "type": "string"
        },
        {
          "indexed": false,
          "internalType": "string",
          "name": "machineName",
          "type": "string"
        },
        {
          "indexed": false,
          "internalType": "string",
          "name": "purchaseDate",
          "type": "string"
        },
        {
          "indexed": false,
          "internalType": "string",
          "name": "manufacturer",
          "type": "string"
        }
      ],
      "name": "MachineRegistered",
      "type": "event"
    },
    {
      "anonymous": false,
      "inputs": [
        {
          "indexed": false,
          "internalType": "string",
          "name": "machineId",
          "type": "string"
        },
        {
          "indexed": false,
          "internalType": "string",
          "name": "problem",
          "type": "string"
        }
      ],
      "name": "ServiceRequested",
      "type": "event"
    },
    {
      "inputs": [
        {
          "internalType": "address",
          "name": "",
          "type": "address"
        }
      ],
      "name": "machines",
      "outputs": [
        {
          "internalType": "string",
          "name": "machineId",
          "type": "string"
        },
        {
          "internalType": "string",
          "name": "machineName",
          "type": "string"
        },
        {
          "internalType": "string",
          "name": "purchaseDate",
          "type": "string"
        },
        {
          "internalType": "string",
          "name": "manufacturer",
          "type": "string"
        }
      ],
      "stateMutability": "view",
      "type": "function"
    },
    {
      "inputs": [
        {
          "internalType": "string",
          "name": "_machineId",
          "type": "string"
        },
        {
          "internalType": "string",
          "name": "_machineName",
          "type": "string"
        },
        {
          "internalType": "string",
          "name": "_purchaseDate",
          "type": "string"
        },
        {
          "internalType": "string",
          "name": "_manufacturer",
          "type": "string"
        }
      ],
      "name": "registerMachine",
      "outputs": [],
      "stateMutability": "nonpayable",
      "type": "function"
    },
    {
      "inputs": [
        {
          "internalType": "string",
          "name": "_machineId",
          "type": "string"
        },
        {
          "internalType": "string",
          "name": "_problem",
          "type": "string"
        }
      ],
      "name": "requestService",
      "outputs": [],
      "stateMutability": "nonpayable",
      "type": "function"
    },
    {
      "inputs": [
        {
          "internalType": "address",
          "name": "",
          "type": "address"
        },
        {
          "internalType": "uint256",
          "name": "",
          "type": "uint256"
        }
      ],
      "name": "serviceRequests",
      "outputs": [
        {
          "internalType": "string",
          "name": "machineId",
          "type": "string"
        },
        {
          "internalType": "string",
          "name": "problem",
          "type": "string"
        }
      ],
      "stateMutability": "view",
      "type": "function"
    }
  ],
  "bytecode": "0x608060405234801561001057600080fd5b50610c37806100206000396000f3fe608060405234801561001057600080fd5b506004361061004c5760003560e01c8063111849d6146100515780632cdd806e1461006d5780633c4458d81461009e5780638d482933146100d1575b600080fd5b61006b60048036038101906100669190610837565b6100ed565b005b610087600480360381019061008291906107fb565b6101e3565b60405161009592919061099f565b60405180910390f35b6100b860048036038101906100b391906107d2565b610334565b6040516100c894939291906109d6565b60405180910390f35b6100eb60048036038101906100e691906108a3565b610584565b005b600160003373ffffffffffffffffffffffffffffffffffffffff1673ffffffffffffffffffffffffffffffffffffffff1681526020019081526020016000206040518060400160405280848152602001838152509080600181540180825580915050600190039060005260206000209060020201600090919091909150600082015181600001908051906020019061018692919061069d565b5060208201518160010190805190602001906101a392919061069d565b5050507fc1197db2498151fcb33b208a159235dbc1fe1123e2b3a48484d51881c3e0c97782826040516101d792919061099f565b60405180910390a15050565b600160205281600052604060002081815481106101ff57600080fd5b90600052602060002090600202016000915091505080600001805461022390610b32565b80601f016020809104026020016040519081016040528092919081815260200182805461024f90610b32565b801561029c5780601f106102715761010080835404028352916020019161029c565b820191906000526020600020905b81548152906001019060200180831161027f57829003601f168201915b5050505050908060010180546102b190610b32565b80601f01602080910402602001604051908101604052809291908181526020018280546102dd90610b32565b801561032a5780601f106102ff5761010080835404028352916020019161032a565b820191906000526020600020905b81548152906001019060200180831161030d57829003601f168201915b5050505050905082565b600060205280600052604060002060009150905080600001805461035790610b32565b80601f016020809104026020016040519081016040528092919081815260200182805461038390610b32565b80156103d05780601f106103a5576101008083540402835291602001916103d0565b820191906000526020600020905b8154815290600101906020018083116103b357829003601f168201915b5050505050908060010180546103e590610b32565b80601f016020809104026020016040519081016040528092919081815260200182805461041190610b32565b801561045e5780601f106104335761010080835404028352916020019161045e565b820191906000526020600020905b81548152906001019060200180831161044157829003601f168201915b50505050509080600201805461047390610b32565b80601f016020809104026020016040519081016040528092919081815260200182805461049f90610b32565b80156104ec5780601f106104c1576101008083540402835291602001916104ec565b820191906000526020600020905b8154815290600101906020018083116104cf57829003601f168201915b50505050509080600301805461050190610b32565b80601f016020809104026020016040519081016040528092919081815260200182805461052d90610b32565b801561057a5780601f1061054f5761010080835404028352916020019161057a565b820191906000526020600020905b81548152906001019060200180831161055d57829003601f168201915b5050505050905084565b6040518060800160405280858152602001848152602001838152602001828152506000803373ffffffffffffffffffffffffffffffffffffffff1673ffffffffffffffffffffffffffffffffffffffff16815260200190815260200160002060008201518160000190805190602001906105ff92919061069d565b50602082015181600101908051906020019061061c92919061069d565b50604082015181600201908051906020019061063992919061069d565b50606082015181600301908051906020019061065692919061069d565b509050507f791510362d76f4d4f5bd743f7d5ab2f60c70fc9a7b61d7f6b8effcc4b72747298484848460405161068f94939291906109d6565b60405180910390a150505050565b8280546106a990610b32565b90600052602060002090601f0160209004810192826106cb5760008555610712565b82601f106106e457805160ff1916838001178555610712565b82800160010185558215610712579182015b828111156107115782518255916020019190600101906106f6565b5b50905061071f9190610723565b5090565b5b8082111561073c576000816000905550600101610724565b5090565b600061075361074e84610a68565b610a37565b90508281526020810184848401111561076b57600080fd5b610776848285610af0565b509392505050565b60008135905061078d81610bd3565b92915050565b600082601f8301126107a457600080fd5b81356107b4848260208601610740565b91505092915050565b6000813590506107cc81610bea565b92915050565b6000602082840312156107e457600080fd5b60006107f28482850161077e565b91505092915050565b6000806040838503121561080e57600080fd5b600061081c8582860161077e565b925050602061082d858286016107bd565b9150509250929050565b6000806040838503121561084a57600080fd5b600083013567ffffffffffffffff81111561086457600080fd5b61087085828601610793565b925050602083013567ffffffffffffffff81111561088d57600080fd5b61089985828601610793565b9150509250929050565b600080600080608085870312156108b957600080fd5b600085013567ffffffffffffffff8111156108d357600080fd5b6108df87828801610793565b945050602085013567ffffffffffffffff8111156108fc57600080fd5b61090887828801610793565b935050604085013567ffffffffffffffff81111561092557600080fd5b61093187828801610793565b925050606085013567ffffffffffffffff81111561094e57600080fd5b61095a87828801610793565b91505092959194509250565b600061097182610a98565b61097b8185610aa3565b935061098b818560208601610aff565b61099481610bc2565b840191505092915050565b600060408201905081810360008301526109b98185610966565b905081810360208301526109cd8184610966565b90509392505050565b600060808201905081810360008301526109f08187610966565b90508181036020830152610a048186610966565b90508181036040830152610a188185610966565b90508181036060830152610a2c8184610966565b905095945050505050565b6000604051905081810181811067ffffffffffffffff82111715610a5e57610a5d610b93565b5b8060405250919050565b600067ffffffffffffffff821115610a8357610a82610b93565b5b601f19601f8301169050602081019050919050565b600081519050919050565b600082825260208201905092915050565b6000610abf82610ac6565b9050919050565b600073ffffffffffffffffffffffffffffffffffffffff82169050919050565b6000819050919050565b82818337600083830152505050565b60005b83811015610b1d578082015181840152602081019050610b02565b83811115610b2c576000848401525b50505050565b60006002820490506001821680610b4a57607f821691505b60208210811415610b5e57610b5d610b64565b5b50919050565b7f4e487b7100000000000000000000000000000000000000000000000000000000600052602260045260246000fd5b7f4e487b7100000000000000000000000000000000000000000000000000000000600052604160045260246000fd5b6000601f19601f8301169050919050565b610bdc81610ab4565b8114610be757600080fd5b50565b610bf381610ae6565b8114610bfe57600080fd5b5056fea264697066735822122044d0c4c4ae9566f3a2220a75d35b4150cb7cc441b4876e05671776dfa1a65c4664736f6c63430008000033",
  "linkReferences": {},
  "deployedLinkReferences": {}
}